:020000040800F2
:1000000000A00020595C0008A15C0008A15C000869
:10001000A15C0008A15C0008A15C000800000000D1
:10002000000000000000000000000000A15C0008CB
:10003000A15C000800000000A15C00080D0A000897
:10004000A15C0008A15C0008A15C0008A15C00089C
:10005000A15C0008A15C0008A15C0008A15C00088C
:10006000A15C0008A15C0008A15C00087D070008F5
:10007000A15C0008A15C0008A15C0008A15C00086C
:10008000A15C0008A15C0008A15C0008A15C00085C
:10009000A15C0008A15C0008A15C0008A15C00084C
:1000A000A15C0008A15C0008A15C0008A15C00083C
:1000B000A15C0008390C00083D130008A15C000891
:1000C000A15C0008A15C0008A15C0008A15C00081C
:1000D000A15C00089B0E0008A15C0008A15C000860
:1000E00065130008A15C0008A15C0008A15C000881
:1000F000A15C0008A15C0008A15C0008A15C0008EC
:10010000000000000000000000000000A15C0008EA
:10011000A15C0008A15C0008A15C0008A15C0008CB
:10012000F1070008A15C0008A15C0008A15C0008C0
:10013000A15C0008A15C00080000000000000000B5
:10014000A15C0008A15C0008A15C000800000000A0
:10015000000000000000000000000000000000009F
:100160000000000000000000A15C0008A15C000885
:10017000A15C00080000000000000000000000007A
:0801800000000000A15C000872
:1001880010B5054C237833B9044B13B10448AFF3C9
:1001980000800123237010BD940900200000000096
:1001A80088010008084B10B51BB108480849AFF38F
:1001B80000800848036803B910BD074B002BFBD02B
:1001C800BDE81040184700BF000000008801000883
:1001D8009809002094090020000000000000000099
:1001E80008B54FF40030012103F034F84FF48020B3
:1001F800012103F02FF84FF40020012103F02AF821
:100208004FF48010012103F025F84FF4001001216C
:1002180003F020F801214FF4800003F01BF84FF49D
:10022800887002F099FF0120014603F013F80220BC
:10023800012103F00FF84FF08050012103F00AF874
:1002480001200146BDE8084003F01CB82DE9F0473D
:100258009AB00025ADF80250FFF7C2FF0FA801F0D1
:10026800E3FF0323ADF848306B4B10934FF4006A5B
:100278006A4B6B480F934FF080094FF020084FF4FA
:1002880080774FF400560FA91195CDF858A0CDF8F6
:100298005090CDF85C8015971395189601F098FF4B
:1002A800012202215E4801F0DFFF01240B2301A88F
:1002B8008DF804308DF805408DF806408DF807401C
:1002C80002F0EEFC2146564801F0BCFF0FA801F0F1
:1002D800ABFF544B10935448544B0F930FA9ADF8F0
:1002E80048401195CDF858A0CDF85090CDF85C80D5
:1002F80015971395189601F06BFF224602214A487C
:1003080001F0B2FF38238DF8043001A802238DF8DC
:1003180006308DF805408DF8074002F0C1FC2146F3
:10032800414801F08FFF07A801F044FB4FF0A040BF
:10033800214601F0DFFB4FF0A040294601F0C4FB45
:100348004FF0A04001F0B2FB4FF0A04001F0C4FB19
:1003580004460028F8D14FF0A04001F0ADFB344B23
:1003680001211860334801F0C5FB3248214601F0ED
:10037800ABFB304801F09AFB2E4801F0ADFB044678
:100388000028F9D12B4801F097FB2B4B02941860F9
:10039800022502A94FF0A0400394049405958DF816
:1003A800184001F035FB02A9224801F031FB4FF457
:1003B800307309934FF480630A9307A903234FF01E
:1003C800A0408DF83830079408940B940C940D9441
:1003D80001F0CAFA07A9174801F0C6FA174B1C70B2
:1003E800174B1C70174B1C70174B29464FF0A04039
:1003F8001C7001F095FD4FF0A040012101F086FD31
:1004080029460C4801F08CFD0A48012101F07EFDC7
:100418001AB0BDE8F08700BF5C0F00204000005014
:1004280008000240AC1000200804024040010050BF
:10043800540F0020000100509C0F0020A40C002045
:100448009C0C00203B110020E00F00204FF0A04042
:10045800012108B501F020FB0C48012101F01CFB2B
:100468004FF0A040012101F0DBFD0028F8D007483B
:10047800012101F0D5FD0028F9D04FF0A04001F08E
:100488009DFC0248BDE8084001F098BC00010050FE
:1004980010B5094C4FF0A04001F09AFC204601F03D
:1004A80097FC4FF0A040002101F0F6FA2046002109
:1004B800BDE8104001F0F0BA0001005008B5FFF7A0
:1004C800E7FF4FF0A04001F023FA044801F020FABA
:1004D800034A00231370034A137008BD000100503B
:1004E800A40C00209C0C0020104B70B50446221A66
:1004F8008A4203F10C0317DA14F8012B0C4D03F8A8
:100508000C2CAE5C03F80D6C05EB82062A44B66A27
:1005180092F8C42003F8052C012243F8096C03F86B
:10052800042C23F8032CE2E770BD00BFA90C0020BF
:10053800000000202DE9F047584C8CB000252378A6
:10054800002B4AD014F8092C554B33F8121001919E
:1005580003EB820303218DF8081000218DF80B109E
:10056800D3F8B00001A902F0EDFA54F8050CB0F187
:10057800A04F08D14B4B4C491A780132D2B21A70AD
:10058800561EABB222E0494B984208D1484B494924
:100598001A780132D2B21A70561EABB216E0464B28
:1005A800984208D1454B46491A780132D2B21A709E
:1005B800561EABB20AE0434B98426BD1424B4349BB
:1005C8001A780132D2B21A70561EABB221F8163020
:1005D800042314F8011C01F07BFB0135272D04F1DD
:1005E8000C04ACD12F4CDFF8C8A021784FF0A04004
:1005F80001F0D0FB2D489AF8001001F0CBFB3448ED
:10060800002101F01FFE0021324801F01BFE01A865
:1006180001F00AFE2378ADF810302F4B0293002426
:100628002E4B2B48019301A94FF400694FF0800825
:1006380020274FF480764FF400550394CDF820908E
:10064800CDF818800997079605940A9501F0C0FD22
:1006580001A801F0E9FD9AF80030ADF81030204B00
:1006680002932048204B019301A90394CDF82090D0
:10067800CDF818800997079605940A9501F0A8FD0A
:100688001348012101F0DEFD1248012101F0DAFDD5
:10069800164B1C700CB0BDE8F08700BFB10C0020F1
:1006A800B4980008A40C00206C1000200001005031
:1006B8009C0C0020C00F002000040050500F0020A8
:1006C800A00F002000050050C80E00208C1000204C
:1006D800080002401C0002405C0F0020400000504F
:1006E800AC10002008040240400100503B110020DB
:1006F800014B1860704700BFA00C00201FB510EE1A
:10070800104A01A802F0E6FF204604F0C9F90246A3
:100718000B4613A1D1E9000104F040FB04F04EFCA4
:1007280080B201380023029001A94FF08040ADF853
:100738000430ADF80C30ADF806308DF80E3002F00C
:1007480071FF4FF08040202103F05EFD4FF08040A4
:10075800012103F02FF804B010BD00BFAFF30080F3
:1007680000000000882A9141014B1878704700BFAB
:100778003B11002010B5022001F098FD38B301208C
:1007880001F0A2FD022001F09FFD114B1878002313
:1007980083420CDA0F4A104932F8132051F823101B
:1007A8000E4C92B289B224F812100133F0E70C4BC8
:1007B8001A7842F001021A701A78032A07D1002227
:1007C8001A70084B05481B68BDE81040184710BD53
:1007D800A40C00206C1000205C0F0020EC100020FE
:1007E8003B110020A00C002010B5164801F05EFD5A
:1007F80038B3154801F068FD124801F065FD134B48
:100808001878002383420CDA114A124932F813206F
:1008180051F82310104C92B289B224F81210013307
:10082800F0E70E4B1A7842F002021A701A78032A7F
:1008380007D100221A700A4B07481B68BDE8104010
:10084800184710BD02000010010000109C0C002089
:10085800C00F0020AC100020EC1000203B1100203D
:10086800A00C002008B54FF40030012102F0F2FC82
:100878004FF48020012102F0EDFC4FF4002001210B
:1008880002F0E8FC4FF48010012102F0E3FC4FF481
:100898000010012102F0DEFC4FF480000121BDE8C8
:1008A800084002F0D7BC08B54FF40030002102F030
:1008B800D1FC4FF48020002102F0CCFC4FF4002042
:1008C800002102F0C7FC4FF48010002102F0C2FCA6
:1008D8004FF40010002102F0BDFC4FF4800000210D
:1008E800BDE8084002F0B6BCF7B5054668461E46A6
:1008F8000F46144602F084F9114830F81530009379
:1009080017B98DF804700AE00123002C18BF1C46A3
:100918008DF8043003238DF806408DF805301EB19C
:1009280001238DF8073001E08DF8076000EB8500A2
:100938006946D0F8B00002F005F903B0F0BD00BF79
:10094800C09A000810B5064B04460A4603EB80011E
:10095800D1F8B00033F81410BDE8104002F07AB9AD
:10096800C09A0008044B024603EB8001D1F8B0009E
:1009780033F8121002F056B9C09A000800F05BBBB9
:1009880000F0B0BB00F0B0BB00F0BCBB00F0CBBBCC
:1009980000B591B001A802F099FA029B4FF47A725F
:1009A800B3FBF2F30F4A013B53600F4BF02183F87E
:1009B80023100023936007231360FFF753FFFFF70B
:1009C80045FC4FF4E13000F097F900F02BF800F007
:1009D800F7FCFFF7D3FF00F0EAFB00F0F5FB11B0DE
:1009E8005DF804FB10E000E000ED00E082B0044B8D
:1009F8000190019A1A601A68002AFCD102B0704767
:100A0800B0090020054B1A6812B11A68013A1A6039
:100A1800034A1368013B1360704700BFB009002008
:100A2800EC00002037B51D4A1D49002313601D4AFC
:100A380013601D4A13601D4A11601D4A002542F8C3
:100A480023501C4A42F823501B4A012442F82340F1
:100A58001A4A42F823501A4AD5542344102BECD191
:100A68002146022002F00EFC21462246154803F0DA
:100A780011FB1D238DF8043001A80F238DF80630D3
:100A88008DF805308DF8074002F00AF90D48214627
:100A980002F090FE284603B030BD00BFC011002010
:100AA80040190100C4110020C81100207C11002049
:100AB8003C11002080110020CC1100201C120020C5
:100AC8000C1200200004004010B50A4B0A4C4FF0ED
:100AD8000052C3F8802020460022012103F0DAFAF0
:100AE8002046002102F066FE0220002102F0CAFB27
:100AF800002010BD00E100E000040040124B30B5BA
:100B08001C68102C02D14FF0FF3030BD1C68013436
:100B18001C6000230D4D55F8234084B945F8230087
:100B28000B4840F823100B4941F823200A4A116862
:100B38000A4A42F823100A4A1846D45430BD0133F1
:100B4800102BE7D1DFE700BFC41100203C110020C3
:100B580080110020CC110020C81100201C12002098
:100B68000C120020044B01221A54044B1A68044B3F
:100B780043F82020002070470C120020C8110020E4
:100B88001C120020084A094900231354084A42F855
:100B98002030084A42F82030074A42F820300A68D4
:100BA800013A0A60184670470C120020C411002050
:100BB8001C1200203C11002080110020014B43F83A
:100BC800201070473C1100201FB5144C206001A86C
:100BD80002F080FD23681248B3F5803F236825BFE3
:100BE80022681B0C03F1FF33ADF804302BBF01332F
:100BF8000293B2FBF3F300232ABF03F1FF33ADF8EE
:100C08000430029301A90023ADF80C30ADF806308A
:100C18008DF80E3002F006FD04B010BD7C110020E6
:100C280000040040014B1868704700BF7C11002089
:100C38002DE9F0472848012103F044FA002848D05C
:100C48002548012103F048FA244B1B68002B40D0AB
:100C5800234D2B6801332B600024DFF890A01AF88D
:100C680004309BB3DFF8888058F8243073B3DFF87A
:100C78008490286859F8243058F82420C01A4FF076
:100C8800000161EBE371002304F008FA13431DD15E
:100C9800134B186859F824200021D317994208BF2C
:100CA800904213D00F4B104F53F824605EB90AF8E6
:100CB800046057F8243049F8246048F824609847BD
:100CC80047F8246002E057F8243098470134102C84
:100CD800C3D1BDE8F08700BF00040040C411002064
:100CE800C8110020CC110020801100200C12002017
:100CF8003C1100201C12002070B506468EB030480A
:100D0800304D00F013FA304800F010FA4FF400208C
:100D1800012102F09FFA4FF48040012102F0A6FA67
:100D280030230293022300248DF80C302846032335
:100D380002A98DF80D308DF80E408DF80F4001F0A6
:100D480001FF28460421072201F08CFF0722052114
:100D5800284601F087FF1D4D08A803F067FB04A88B
:100D680003F080FB284604A903F06CFB0C232846FB
:100D780008A90C93089609940A940B940D9403F00F
:100D8800F9FA2846012103F073FB25238DF8043076
:100D980001260F2301A88DF805308DF806308DF84F
:100DA800076001F07DFF28462246094903F0B4FC9C
:100DB80028460849324603F0AFFC0EB070BD00BFAC
:100DC8005C12002000080048DF12002000380140B3
:100DD800070107000501050008B50146044800F0B1
:100DE800AAF9044804490122BDE8084003F094BC6C
:100DF800DF12002000380140070107002DE9F0410B
:100E0800A0B00F4CD4F800806768A668E56804F1C4
:100E180010017322684604F013FC404639463246F6
:100E28002B4600F0BAF90128EBD020460DF17F01DE
:100E380000F099F99DF87F0020B0BDE8F08100BF6F
:100E48005C120020F0B50B499FB00F684E688D68A2
:100E5800CC6868461031732204F0F2FB38463146FC
:100E68002A46234600F099F9B0FA80F040091FB0ED
:100E7800F0BD00BF5C12002070B505460E46044662
:100E8800631BB34204DA14F8010BFFF7A5FFF7E779
:100E980070BD07B51348144903F076FC40B11148FA
:100EA80003F07AFBC1B211488DF8071000F043F93E
:100EB8000C480F4903F068FC80B10E480DF107019A
:100EC80000F051F90128074804D19DF8071003F0F4
:100ED8005FFB03E00649002203F01EFC03B05DF847
:100EE80004FB00BF00380140050105005C1200202A
:100EF80007010700DF12002010B50446E2061B4870
:100F08004FF0100102D501F0A1FE01E001F0A0FEB2
:100F1800A30616484FF0200102D501F097FE01E024
:100F280001F096FE620611484FF0400102D501F02B
:100F38008DFE01E001F08CFE23060C484FF0800185
:100F480002D501F083FE01E001F082FE04210122B6
:100F5800064801F07FFE0220FFF748FD0348042100
:100F68000022BDE8104001F075BE00BF000C00482B
:100F780010B50446E2071B484FF0100102D501F0F6
:100F880065FE01E001F064FEA30716484FF020015A
:100F980002D501F05BFE01E001F05AFE620711483C
:100FA8004FF0400102D501F051FE01E001F050FE82
:100FB80023070C484FF0800102D501F047FE01E0FD
:100FC80001F046FE04210122064801F043FE0220FA
:100FD800FFF70CFD034804210022BDE8104001F092
:100FE80039BE00BF000C004810B50446FFF784FF67
:100FF8002046BDE81040FFF7BBBF10B501210446ED
:101008000022044801F026FE2046BDE81040FFF704
:10101800EBBF00BF000C004810B5012104460A468A
:10102800034801F017FE2046BDE81040FFF7DCBF7B
:10103800000C00487047F7B5294E4FF48010012185
:1010480002F008F901240025F023032730466946F9
:1010580000938DF804408DF806508DF8057001F066
:1010680071FD07233046694600938DF804408DF8DA
:1010780006508DF8057001F065FD30462A460421BA
:1010880001F0E8FD304621462A4601F0E3FD022141
:101098002A46304601F0DEFD1020FFF7A7FC30207D
:1010A800FFF72AFF0520FFF7A1FC3020FFF724FFF8
:1010B8002046FFF79BFC3020FFF71EFF2020FFF79C
:1010C8001BFF2820FFF799FF0C20FFF796FF20460B
:1010D800FFF793FF0620FFF790FF03B0F0BD00BFB6
:1010E800000C0048FFF798BF032988BF0021044B74
:1010F8005B5C132888BF00201844C0B2FFF77DBF8F
:10110800CC9C000813B5002304460193019BE05CC6
:10111800FFF782FF019B01330193019BE35C002BE6
:10112800F4D102B010BD0120FFF767BF0023837020
:101138000370437070478378802B10D00378DBB23C
:101148005A1C0344D2B20270D97083780133DBB2DF
:1011580083700378802B04D10023037001E0002002
:10116800704701207047827802F0FF038AB1437804
:10117800DBB25A1CD2B203444270DB780B7083781E
:10118800013BDBB283704378802B04D1002343708A
:1011980001E0184670470120704784B08DE80F00C1
:1011A8009DF80200B0FA80F004B04009704708B515
:1011B80001F0B2F9BDE8084000F0BABA00F090BA00
:1011C80000F052BB00000000F0B53A4B3A4E8DB02B
:1011D8000025012104201D605D601D7202F052F897
:1011E800FFF740FB09A802F075FA06A802F028FEEE
:1011F8004FF6FF730A93304640F2FF1309A9ADF882
:101208002430ADF82C50ADF826508DF82E5002F051
:1012180009FA30460121012402F050FF03271E235A
:1012280001A88DF804308DF805408DF806708DF80A
:10123800074001F035FD22462146304602F02AFFDC
:1012480002A801F0DDFC4FF4806302A91B48029359
:101258008DF80C508DF80D7001F074FC2046214675
:1012680002F004F80A21204602F0FEF828238DF83F
:10127800043001A802238DF806308DF805408DF85A
:10128800074001F00DFD04A801F0CCF80A230493EF
:1012980010230DEB03008DF815308DF816408DF8EE
:1012A800145001F035F83046214602F083FA0DB0AB
:1012B800F0BD00BFB8090020000800400004004845
:1012C80013B50F4C01A82146042204F0B9F901987E
:1012D80068B1237A5BB903F0C1FB02460B4606A14D
:1012E800D1E9000103F05AFD03F088FE00E0002078
:1012F80000EE100A02B010BD00000000882AF1407C
:10130800B809002008B510EE100A03F0C9FB0B4617
:10131800024606A1D1E9000103F040FD03F026FED4
:10132800014BD86008BD00BFB809002000000000CC
:10133800882AF14008B50748012102F0C3FE38B1F8
:10134800054B044801211972BDE8084002F0C4BEEB
:1013580008BD00BF00080040B809002038B50A20C1
:1013680001F094F830B3144C237A03F0FF052BB145
:10137800002121601148616021720CE00F4802F0E1
:10138800C3F9E2689042034608D32268626020608D
:101398000A482572294602F0B3F906E02168074891
:1013A800194402F0ADF9636823600A20BDE83840AB
:1013B80001F080B838BD00BFB8090020000800401F
:1013C800F0B5324C89B04FF6FF7301214FF400603D
:1013D800236001F04BFF684602F07CF903A802F095
:1013E80051FB23682A4C0193002520466946ADF835
:1013F8000850ADF80250ADF800508DF80A5002F0D0
:1014080011F9602303930423ADF812304FF480736D
:1014180008260127ADF81C30204647F6FF7303A9BC
:101428000593ADF81070ADF81850ADF81A60ADF826
:101438001E5002F0CDF92046314602F091FB2046BD
:1014480003A902F00DFA2046314602F08FFB204630
:1014580003A902F03FFA2046314602F08FFB2046EE
:1014680003A902F06FFA2046314602F08DFB2046B0
:10147800294602F079F92046394602F09BF92046C0
:10148800394602F0E5FD09B0F0BD00BF6413002045
:10149800002C0140A0F10803032B2DE9F341044679
:1014A80009D9492816D04B2816D04D2816D04E28D1
:1014B8003BD1042513E00A2806D00B2807D00928B9
:1014C8000CBF0225012500E00325062608E00425B7
:1014D800064605E0012502E0022500E00325022674
:1014E800144F684601F08CFB37F814300093002342
:1014F8008DF8063001238DF8073003238DF8053069
:1015080002238DF8043007EB840307EB4404D3F877
:10151800B0806946404601F015FB4046B4F80C120D
:10152800324601F09FFB284601E04FF0FF3002B041
:10153800BDE8F081D09C0008014B1868704700BFD7
:1015480064130020013803280FD8DFE800F00205F3
:10155800080B064802F0CABA044802F0C9BA0348A0
:1015680002F0C8BA014802F0C7BA7047002C01401F
:10157800064BD3ED007AF8EEE77A20EE270AFDEE67
:10158800C07A17EE901AFFF7DDBF00BF6413002082
:1015980010B52DED028BDFED258A9FED257A254CC0
:1015A800C8EE807AB0EE408AF4EEC77AF1EE10FA0F
:1015B8000DD8FDEEE77A002117EE903A013B07EED1
:1015C800903AF8EEE77A236088EEA78A1FE017EED4
:1015D800900A03F065FA184B002203F0B5FA03F0FD
:1015E800C5FC431C07EE903AF8EEE77A0146C8EED0
:1015F800A78A88EE888ABDEEC88A18EE103A013BA1
:1016080007EE903AB8EEE78A236088EE888A0B489E
:1016180089B2002202F068F80848216802F072F8DE
:10162800B0EE480ABDEC028B10BD00BF4054894C97
:1016380000008047641300200000F03E002C0140A9
:1016480038B5194A194B1B88128892B205469BB2C5
:101658002AB94EF6EE629B1A18BF012308E02BB98F
:101668004EF6EE63D21A5342534101E0AB2038BD27
:10167800DB020F4A03F1006404F580341A449442F3
:101688000FD2236801330AD1204601F045F8042817
:1016980003D1A01C294601F03FF880B238BD0434BC
:1016A800EDE7802038BD00BF0008010800000108F0
:1016B800FE07010808B5084800F0C2FF04280AD14F
:1016C8000548002101F028F8042804D10348BDE8A2
:1016D800084000F0B5BF08BD000001080008010877
:1016E8000F4B104A1B8812889BB210B592B21BB1DF
:1016F8000AB1AB2010BD01230B4ADB021A440B4C84
:101708001C44A2420AD91488A4B2844204D132F8F3
:10171800023C0B80002010BD043AF0E7012010BD08
:101728000000010800080108FE070108020001087E
:101738002DE9F0410023474D25F813300133FF2BE5
:10174800F9D1454F454E3C883388A4B24EF6EE6138
:101758008C429BB24FF6FF7211D0944202D0002CFB
:1017680073D143E00BB938466CE08B426DD13846F3
:1017780000F066FF80B204286AD1304632E043BBED
:101788001C461646364B35F814701B889BB2BB4274
:1017980008BFA6B233B29C420FD0DFF8B8803846F3
:1017A80008F5FF71FFF79CFF012806D03846B8F806
:1017B800FE11FFF745FF04284AD10134FF2CE1D17F
:1017C8002548002100F0A8FF80B2042840D1234812
:1017D80038E0934239D1304600F032FF80B2042815
:1017E80036D13846002100F097FF30E06BB39342C2
:1017F80001D1304626E016461A4B35F814701B887E
:101808009BB2BB4208BFA6B233B29C420FD0DFF8EE
:101818004480384608F5FF71FFF762FF012806D0BB
:101828003846B8F8FE11FFF70BFF042810D1013431
:10183800FF2CE1D10948002100F06EFF80B2042896
:1018480006D1054800F0FCFE01E0FFF733FF80B247
:10185800BDE8F081C809002000000108000801085F
:1018680006000108060801082DE9F04782460E46E1
:10187800FFF7E6FE8028044640D1224D224B2988F6
:101888001A8889B292B211B1AABB994601E0A94659
:101898001D4628464EF6EE6100F03EFF042828D18A
:1018A80050463146FFF7CCFE0428044626D10026D0
:1018B800164F37F81680D0450DD0404607F5FF7112
:1018C800FFF70EFF012806D04046B7F8FE11FFF7D4
:1018D800B7FE042811D10136FF2EE9D1484600F0A1
:1018E800AFFE042805D12846002100F015FF042882
:1018F80004D084B202E0AB2400E004462046BDE8F0
:10190800F08700BF0000010800080108C80900208E
:10191800B0F1A04F08B516D0114B984213D0114B17
:10192800984204D003F58073984200D008BD4FF068
:101938000050012101F0B2FC4FF000500021BDE839
:10194800084001F0ABBC4FF08050012101F0A6FC2B
:101958004FF080500021BDE8084001F09FBC00BF57
:101968000001005000040050F0B583B08B690F6887
:1019780001934B688E68CD680C694A69D0F80CC031
:10198800DFF82CE01F433E4335432C43019B2243A1
:1019980013430CEA0E0E43EA0E03C3600A7F036B7F
:1019A800013A23F00F031343036303B0F0BD00BFF4
:1019B80007C0FFFD002301220277036043608360B4
:1019C800C360036143618361704700BFF0B591E86C
:1019D8001040CA684B690F698E690D7AC16C4EEA6E
:1019E800040141EA022141EA873242EA035242EA0B
:1019F80086636A1E1343C364F0BD00BF012300223F
:101A0800026042600372C36003614361836170478F
:101A1800B0F1A04FF0B515D0174B984212D0174B24
:101A280088689D68164BCC6891E8440032432B4087
:101A38000243097C1A4342EA043343EA01230F4A6A
:101A48009360F0BD0F4B8C689F680D4ACB680E7C85
:101A580091E820404EEA05013A4021430A4342EA10
:101A68000332B0F1A04F42EA062302D0024A904264
:101A7800E5D1044A9360F0BD000100500007005012
:101A8800E010FCFF00030050002303604360836004
:101A9800C3600374704700BF836819B943F0020339
:101AA8008360704743F0010383607047836843F0A5
:101AB80000438360704700BFD0F8B400704700BF90
:101AC800C0F8B410704700BF836823F08043836078
:101AD80083681943816070478068C00F704700BFF2
:101AE800836843F002038360704700BF8068C0F3D7
:101AF80040007047836823F040538360836819B9B6
:101B080043F000538360704743F08053836070470D
:101B180001233AB9D0F8B0208B4022EA0303C0F879
:101B2800B0307047D0F8B0208B401343C0F8B030C5
:101B3800704700BFC36819B923F40013C360704726
:101B480043F40013C3607047C36819B923F4804392
:101B5800C360704743F48043C3607047C36823F091
:101B6800E0731943C1607047036A23F07F6323F46D
:101B780070230362036A43EA01410162036A23F4A2
:101B88007F6323F00F030362036A1A4302627047FC
:101B9800436A23F47F034362436A43EA0141416293
:101BA800436A23F0FF034362436A1A434262704761
:101BB800836A23F47F038362836A43EA0141816273
:101BC800836A23F0FF038362836A1A438262704741
:101BD800C36823F0F84343EA8161C160704700BFDE
:101BE800D0F8A030D0F8A02010B4054C1C40012338
:101BF80022438B401343C0F8A0305DF8044B704774
:101C08000100F8FFD0F8A430D0F8A42010B4054C97
:101C18001C40012322438B401343C0F8A4305DF8D5
:101C2800044B70470100F8FFB0F1A04F09D0094BF1
:101C3800984206D0084A936839B923F400039360A0
:101C48007047064A93680029F7D043F4000393606D
:101C5800704700BF0001005000070050000300500B
:101C6800B0F1A04F09D0094B984206D0084A9368B2
:101C780039B923F4800393607047064A93680029B2
:101C8800F7D043F480039360704700BF0001005011
:101C98000007005000030050B0F1A04F09D0094BD5
:101CA800984206D0084A936839B923F08073936044
:101CB8007047064A93680029F7D043F08073936011
:101CC800704700BF0001005000070050000300509B
:101CD800042A70B41ED802EB42025200056B1F267C
:101CE800964001FA02F425EA060222430263092912
:101CF80021D801394269446901EB410138228A40FF
:101D080024EA02024261426903318B401343436172
:101D180070BC7047092A1ED8053A02EB42025200ED
:101D2800456B1F26964001FA02F425EA0602224373
:101D380009294263DDD90A398269846901EB4101C5
:101D480007228A4024EA0202826182698B40134397
:101D5800836170BC70470E2A0DD80A3A02EB420222
:101D68005200856B1F26964001FA02F425EA060206
:101D780022438263BBE70F3A02EB42025200C56B73
:101D88001F26964001FA02F425EA06022243C2639E
:101D9800ADE700BF036B23F00F030363036B013947
:101DA80019430163704700BFC36823F47C63C360B1
:101DB800C3680A431A43C260704700BF836843F090
:101DC80004038360704700BF8068C0F380007047D9
:101DD800836843F010038360704700BFC36801390C
:101DE80023F4602343EA4141C1607047C36819B9CD
:101DF80023F48033C360704743F48033C360704773
:101E0800006C80B2704700BFB0F1A04F05D0044B02
:101E1800984202D0034BD8687047034BD868704784
:101E2800000100500007005000030050036E23F02B
:101E3800F8430366036E43EA81610166036E23F487
:101E48007F6323F00F030366036E1A43026670472D
:101E5800436E23F0F8434366436E43EA816141666B
:101E6800436E23F47F6323F00F034366436E1A43E4
:101E780042667047836E23F0F8438366836E43EAB5
:101E880081618166836E23F47F6323F00F03836689
:101E9800836E1A4382667047C36E23F0F843C366A5
:101EA800C36E43EA8161C166C36E23F47F6323F086
:101EB8000F03C366C36E1A43C2667047036E19B92F
:101EC80023F000430366704743F0004303667047FE
:101ED800436E19B923F000434366704743F000434B
:101EE80043667047836E19B923F0004383667047D1
:101EF80043F0004383667047C36E19B923F000436B
:101F0800C366704743F00043C3667047C36819B996
:101F180023F00103C360704743F00103C3607047B7
:101F2800C36823F00203C360C3681943C1607047E4
:101F3800092970B418D801EB410645690724B44053
:101F4800B34025EA040423434361013A02EB420209
:101F5800C46C52004FF4F853934024EA03039140B1
:101F68001943C16470BC7047A1F10A0404EB44042E
:101F780085690726A640A34025EA06042343836112
:101F8800E3E700BFC36C013923F003031943C164BD
:101F9800704700BFC36C23F0FC03C364C36C0A43DF
:101FA8001A43C264704700BF836843F00803836024
:101FB800704700BF836843F020038360704700BF09
:101FC8008068C0F3C0007047C36819B923F0007374
:101FD800C360704743F00073C3607047C36819B9A2
:101FE80023F48013C360704743F48013C3607047C1
:101FF80082B0002301930190019B80331944019121
:10200800019B186880B202B0704700BF43681AB9D4
:1020180023EA01014160704719434160704700BFDE
:102028000368194214BF01200020704701607047FF
:10203800B0F1A04F09D0064B984206D0054B1B685B
:102048000B4214BF012000207047034B1B68F7E7C1
:10205800000100500007005000030050B0F1A04FED
:1020680007D0064B984204D0054A136819431160FB
:102078007047044A13681943116070470001005003
:1020880000070050000300500368426889B211EA53
:10209800030003D0114214BF01200020704700BF85
:1020A800036819430160704703683B494FF6FE72A5
:1020B8001A4088424FF00003026003604360836067
:1020C800C36027D0354B98422AD0354B98422DD043
:1020D800344B984230D0344B984239D0334B9842E5
:1020E8003CD0334B98420FD0324B98423CD0324BC5
:1020F80098423FD0314B984242D0314B984245D01C
:10210800304B98421ED070472F4A536843F0706393
:10211800536070472C4A536843F00F03536070476D
:10212800294A536843F0F00353607047264A5368BE
:1021380043F4706353607047234A536843F4704311
:1021480053607047214A536843F470235360DAE7B9
:102158001D4A536843F47023536070471A4A536802
:1021680043F4700353607047184A536843F00F03F1
:1021780053607047154A536843F0F0035360704743
:10218800124A536843F47063536070470F4A5368A8
:1021980043F4704353607047080002401C0002403B
:1021A8003000024044000240580002406C000240E7
:1021B80080000240080402401C040240300402402F
:1021C8004404024058040240000002400004024057
:1021D8002DE9F04FD1F820B0D1F808A0D1F810902F
:1021E8008B69D1F81480CE694D6A8C6AB1F80CE01D
:1021F800026891E880104BEA0A0141EA090141EAC4
:1022080008011943314322F4FF43294341EA0402F8
:1022180023F0700313430360C0F804E08760C0F83C
:102228000CC0BDE8F08F00BF0023036043608360EB
:102238008381036143618361C36103624362836293
:10224800704700BF29B902684FF6FE731340036058
:102258007047036843F001030360704741607047AB
:10226800406880B2704700BF03681AB923EA0101C9
:102278000160704719430160704700BFC3004CBF3D
:10228800034B044B1B68034214BF01200020704716
:102298000004024000000240C3004CBF014B024B47
:1022A800586070470004024000000240C3004CBF61
:1022B800034B044B1B68034214BF012000207047E6
:1022C8000004024000000240C3004CBF014B024B17
:1022D80058607047000402400000024030B40B4BC5
:1022E80000224FF0FC556FF0FC540C2003211D60B8
:1022F8005A609A60DA601A615C61186230BC5A628E
:102308009A62DA621A635963704700BF0004014099
:102318008379F0B5002B59D0036802794479DFF846
:1023280000E13D4E3D4D23F01F0101F1804101F5D3
:10233800823103F01F07D1F800C0012303FA07F721
:102348002CEA07070F60016821F01F0C01F01F013C
:102358005CF80E7003FA01F127EA01014CF80E103F
:10236800016802F1804221F01F0702F5823201F074
:102378001F0152F807E003FA01F14EEA0101D151B9
:10238800026822F01F0702F01F02B95903FA02F28D
:1023980021EA0202BA51026822F01F0702F01F0266
:1023A800795903FA02F221EA0202102C7A511FD05D
:1023B800016804F1804221F01F0002F5823201F029
:1023C8001F0114588B4023431350F0BD0379026852
:1023D80003F1804322F01F0403F5823302F01F0249
:1023E8001959012000FA02F221EA02021A51F0BD3D
:1023F800026822F01F0102F01F028C5903FA02F250
:1024080022438A51026822F01F0102F01F02485934
:10241800934003434B51F0BD080401400C040140B4
:102428000404014000231022427103600371837188
:10243800704700BF20F01F01054A10B400F01F00CC
:102448008C580123834023438B505DF8044B70471D
:102458001004014020F01F02054B00F01F00D25865
:10246800012383401A4214BF01200020704700BF97
:102478001404014000F01F01012320F01F00024A4C
:102488008B408350704700BF1404014020F01F03A5
:1024980003F1804303F5823300F01F00012219681D
:1024A8005B69824013EA020003D0114214BF012085
:1024B8000020704700F01F01012320F01F00024A8E
:1024C8008B408350704700BF14040140034A1368CF
:1024D80023F0030318431060704700BF0020024038
:1024E800054A136818B923F008031360704743F0CE
:1024F80008031360704700BF00200240054A1368B4
:1025080018B923F010031360704743F010031360E9
:10251800704700BF00200240044B1A69120603D519
:102528000349044A59605A60704700BF00200240BE
:1025380023016745AB89EFCD024A136943F0800355
:102548001361704700200240044B1A69920503D4B6
:102558000349044A99609A60704700BF002002400E
:1025680023016745AB89EFCD024A136923F4007351
:102578001361704700200240024A136943F4005374
:102588001361704700200240024BD869C0F307204E
:10259800704700BF00200240014B186A704700BF17
:1025A80000200240034BDB6913F0060F14BF012023
:1025B8000020704700200240044A136919B923EA31
:1025C80000001061704718431061704700200240F6
:1025D800034BDB68184214BF01200020704700BF7E
:1025E80000200240014BD860704700BF0020024025
:1025F800084BDA68D1070BD4DA68D20601D5022075
:102608007047DB6813F0040F14BF032004207047E1
:10261800012070470020024010B50446FFF7E8FF8C
:10262800012806D14CB1FFF7E3FF012804F1FF347C
:10263800F8D0002C08BF052010BD052010BD00BF34
:1026480038B505464FF43020FFF7E6FF042800D0E0
:1026580038BD094C236943F002032361656123698E
:1026680043F0400323614FF43020FFF7D5FF23697F
:1026780023F00203236138BD0020024010B54FF457
:102688003020FFF7C9FF042800D010BD084C23698B
:1026980043F004032361236943F0400323614FF4AB
:1026A8003020FFF7B9FF236923F00403236110BD2D
:1026B8000020024070B582B0002305464FF4302058
:1026C8000C460193FFF7A8FF042801D002B070BDA3
:1026D800104E3269A3B242F0010232614FF4302049
:1026E8002B80FFF799FF042805D0336923F00103F5
:1026F800336102B070BD02350195019B240C1C802A
:102708004FF43020FFF788FF336923F0010333616A
:10271800DCE700BF0020024070B504464FF43020CB
:102728000D46FFF779FF042800D070BD074E3369C6
:1027380043F0010333614FF430202580FFF76CFF2D
:10274800336923F00103336170BD00BF00200240EC
:1027580038B51A4CE3694FF4302013F0060F0CBF5C
:10276800AA250025FFF758FF042800D038BD2369A3
:1027780043F020032361236943F0400323614FF4AE
:102788003020FFF749FF042806D00528EED023693A
:1027980023F01003236138BD2369094A23F020037D
:1027A8002361236943F0100323614FF4302015801F
:1027B800FFF732FF0528EAD1D8E700BF0020024022
:1027C80000F8FF1F10B504464FF43020FFF724FF30
:1027D800042800D010BD134AE4431369E1B243F062
:1027E8001003FF2913610FD00F4B4FF430201981CC
:1027F800FFF712FF042807D00528EBD0094A136910
:1028080023F01003136110BDC4F30724FF2C07D075
:10281800054BA4B25C814FF43020FFF7FDFEEBE7D7
:102828000420EBE70020024000F8FF1F38B50546FA
:102838004FF43020FFF7F0FE042800D038BD164CC6
:10284800236943F020032361236943F04003236194
:102858004FF43020FFF7E0FE042806D00528EDD01D
:10286800236923F02003236138BD23690B4A23F031
:10287800200323612369ADB243F0100323614FF4B1
:1028880030201580FFF7C8FE0528D7D0236923F02C
:102898001003236138BD00BF0020024000F8FF1F6D
:1028A800F8B5124C124D134BA5600646A3604FF4C1
:1028B80030200F461546FFF7AFFE042800D0F8BDBC
:1028C80065F0070322690C493B433343DBB242F00E
:1028D800100222614FF430204B80FFF79DFE05283F
:1028E800EDD0236923F010032361F8BD00200240D6
:1028F80023016745AB89EFCD00F8FF1F38B5104CB1
:10290800104A114BA2600546A3604FF43020FFF730
:1029180083FE042800D038BD23690C4A43F0100315
:1029280045F0EF0523614FF430205580FFF774FE22
:102938000528F0D0236923F01003236138BD00BFB8
:102948000020024023016745AB89EFCD00F8FF1F47
:1029580038B5104C104A114BA2600546A3604FF4DD
:102968003020FFF759FE042800D038BD23690C4AEF
:1029780043F0100345F0DF0523614FF43020558004
:10298800FFF74AFE0528F0D0236923F010032361DE
:1029980038BD00BF0020024023016745AB89EFCD59
:1029A80000F8FF1F38B504464FF43020FFF734FE17
:1029B800042800D038BD0A4D0A4A2B6944F0BF04E8
:1029C80043F010032B614FF430205480FFF724FEAE
:1029D8000528EFD02B6923F010032B6138BD00BF09
:1029E8000020024000F8FF1F38B5104C104A114B68
:1029F800A2600546A3604FF43020FFF70DFE0428BF
:102A080000D038BD23690C4A43F0100345F088050F
:102A180023614FF430205580FFF7FEFD0528F0D0E4
:102A2800236923F01003236138BD00BF0020024052
:102A380023016745AB89EFCD00F8FF1F70B5054648
:102A48004FF430200C46FFF7E7FD042800D070BD96
:102A5800084E3369A4B243F0100333614FF43020B9
:102A68002C80FFF7D9FD0528F1D0336923F0100336
:102A7800336170BD00200240B0F1904F08B51BD003
:102A88002B4B984224D02B4B98422DD02A4B98425E
:102A980036D02A4B98423FD0294B984200D008BDE7
:102AA8004FF48000012100F0F9FB4FF48000002171
:102AB800BDE8084000F0F2BB4FF40030012100F0FF
:102AC800EDFB4FF400300021BDE8084000F0E6BB04
:102AD8004FF48020012100F0E1FB4FF48020002119
:102AE800BDE8084000F0DABB4FF40020012100F0F7
:102AF800D5FB4FF400200021BDE8084000F0CEBB14
:102B08004FF48010012100F0C9FB4FF48010002120
:102B1800BDE8084000F0C2BB4FF40010012100F0EE
:102B2800BDFB4FF400100021BDE8084000F0B6BB23
:102B38000004004800080048000C00480010004845
:102B48000014004800222DE9F0471346D1F800E0B0
:102B580001274FF0030C04E00133102B02F10202AD
:102B680025D007FA03F404EA0E05A542F4D10E793C
:102B7800741E012C0CFA02F41BD9E443056891F881
:102B880007802C4004600468964026430660C468A9
:102B98000CFA02F524EA0504C460C56808FA02F4D0
:102BA80001332C43102BC46002F10202D9D1BDE8D5
:102BB800F087D0F808A091F8058091F806900CFAF3
:102BC80002F4E44304EA0A0AC0F808A0D0F808A00E
:102BD80008FA02F848EA0A08C0F80880B0F8048041
:102BE8001FFA88F828EA0508A0F80480B0F80480DD
:102BF80009FA03F949EA0805ADB28580BEE700BFC6
:102C080000234FF6FF710122016042710371837145
:102C1800C371704741F48033C361C161C361C36943
:102C2800C3697047038A194214BF01200020704706
:102C3800008A80B2704700BF838A194214BF0120FE
:102C480000207047808A80B2704700BF816170475A
:102C5800018570470AB9018570478161704700BFD7
:102C680081827047CB0800EB830001F0070110B4A4
:102C78008900046A0F238B4024EA03030362036A72
:102C88005DF8044B8A4013430362704740F0BF600D
:102C9800024B40F40030D860704700BF00ED00E000
:102CA800C3785BB9037818485A09203203F01F0328
:102CB800012101FA03F340F822307047F0B4134AB7
:102CC8004378D268857801780F4CD243C2F3022248
:102CD8000F26D640C2F1040703FA07F206EA0503F5
:102CE800134301F1604202F561421B01DBB282F835
:102CF80000330378012203F01F015B098A4044F87E
:102D08002320F0BC704700BF00E100E000ED00E0C8
:102D180021F0604121F07F01014B08439860704722
:102D280000ED00E0044A136919B923EA00001061B4
:102D3800704718431061704700ED00E0044A1368BB
:102D480004280CBF43F0040323F004031360704706
:102D580010E000E0114B124A1868124940F00100D7
:102D68001860586802405A601A6822F0847222F487
:102D780080321A601A6822F480221A605A6822F493
:102D8800FE025A60DA6A22F47F5222F03F02DA62C7
:102D9800186B0022014019639A60704700100240C6
:102DA80000C0FFF8CCFC000F024B00221A7018700C
:102DB800704700BF02100240034A136823F0F8036B
:102DC80043EAC0001060704700100240014B1860D1
:102DD800704700BF00004242064B1A6A22F0010207
:102DE8001A621A6A22F004021A621A6A10431862F6
:102DF800704700BF00100240044B1A6A22F0180204
:102E08001A621A6A10431862704700BF0010024025
:102E1800014B1860704700BF80044242044A53685F
:102E280023F4741353605368194308435060704780
:102E380000100240014B1860704700BF600042421A
:102E4800034AD36A23F00F031843D062704700BFC8
:102E580000100240014B1860704700BF4C0042420E
:102E6800014B1870704700BF07100240034A5368AF
:102E780023F0030318435060704700BF001002405E
:102E8800024B586800F00C00704700BF0010024069
:102E9800034A536823F0F00318435060704700BF9B
:102EA80000100240034A536823F4E063184350605B
:102EB800704700BF00100240034A536823F4605370
:102EC80043EAC00050607047001002409E4A5368B1
:102ED80003F00C03042BF0B500F00481082B00F07C
:102EE800EE809A49016003B10023974D984C6A68B7
:102EF800C2F30312A65CF6B221FA06F242606F68CA
:102F0800C7F30227E75D22FA07FEC0F808E06F68FA
:102F1800C7F3C227E75DFFB2FA40C260ED6AC5F3A6
:102F2800041504EB45052D8AADB215F0100F1CBF32
:102F3800B3FBF5F50561844D08BF0161ED6AC5F382
:102F4800442504EB4504248AA4B2E50644BFB3FB38
:102F5800F4F444617C4C58BF4161246BE5065CBFC6
:102F68007A4C8461784C48BF8161246BA4065CBFAD
:102F7800764CC461744C48BFC161256BED053BD5E7
:102F88008B4200F0B9800262236B42626E4B1C6B6D
:102F9800A40740F0828082626B4B1A6B12F4403FA8
:102FA80066D1C0F82CE0684B1A6B12F4402F4AD156
:102FB800C0F830E0644B1A6B12F4401F27D1C0F8F8
:102FC80034E0614B1A6B12F4400F39D01A6B02F4DB
:102FD8004002B2F5800F00F09E801A6B02F44002A6
:102FE800B2F5000F00F0AC801B6B03F44003B3F59F
:102FF800400F00F09280F0BD0262246BA505C4D595
:103008008B42C2D1B742C0D14B004362BEE71A6BB4
:1030180002F44012B2F5801F68D01A6B02F4401215
:10302800B2F5001F7CD01B6B03F44013B3F5401FAF
:1030380004BF464B4363444B1A6B12F4400FC5D18F
:10304800C0F838E0F0BD1A6B02F44022B2F5802FC8
:103058005BD01A6B02F44022B2F5002F64D01B6BD0
:1030680003F44023B3F5402F04BF384B0363A1E7B3
:103078001A6B02F44032B2F5803F39D01A6B02F471
:103088004032B2F5003F53D01B6B03F44033B3F525
:10309800403F04BF2D4BC36285E71A6B02F0030261
:1030A800012A27D01A6B02F00302022A44D01B6BB4
:1030B80003F00303032B04BF244B83626CE75368BC
:1030C8005468C3F38343991CE30320D5D36A1F4A8A
:1030D80003F00F030133B2FBF3F301FB03F30360C7
:1030E800194602E7194901600023FEE6416368E7D3
:1030F800C16258E781624FE7B7427FF444AF4B00A3
:103108000362246BA60580D43FE7016352E7114BA5
:1031180003FB01F3E3E78163F0BD0C4B8363F0BD70
:103128004FF4004343634CE74FF40043036341E724
:103138004FF40043C36236E74FF4004383622BE742
:103148004FF400438363F0BD0010024000127A0080
:10315800F400002000093D00064A030FD36A14BF9B
:1031680023F4785323F4F873D362024AD36A1843DA
:10317800D062704700100240064A030F136B14BF59
:1031880023F0200323F010031363024A136B184340
:103198001063704700100240064A030F136B14BFF8
:1031A80023F4007323F480731363024A136B1843E8
:1031B8001063704700100240030F013B042B09D82D
:1031C800DFE803F01319031F0D00114A136B23F4F2
:1031D800402313630E4A136B1843106370470C4A5D
:1031E800136B23F440031363F4E7094A136B23F0CA
:1031F80003031363EEE7064A136B23F440331363A8
:10320800E8E7034A136B23F440131363E2E700BFB4
:1032180000100240014B1860704700BFD8004242BE
:10322800024A136A18431062704700BF0010024038
:10323800014B1860704700BFDC004242014B186028
:10324800704700BF3C044242014B1860704700BF02
:1032580040044242044A536919B923EA0000506104
:10326800704718435061704700100240044A936940
:1032780019B923EA000090617047184390617047BC
:1032880000100240044AD36919B923EA0000D0614A
:1032980070471843D061704700100240044A936A8F
:1032A80019B923EA0000906270471843906270478A
:1032B80000100240044AD36819B923EA0000D0601C
:1032C80070471843D060704700100240044A1369E1
:1032D80019B923EA0000106170471843106170475C
:1032E80000100240044A137819B923EA000010704C
:1032F800704718431070704709100240430908D1FD
:103308000F4B1A6800F01F0322FA03F000F00100C7
:103318007047012B0BD0042B094B0CBF5A685A6A13
:1033280000F01F0322FA03F000F001007047044B7D
:103338001A6A00F01F0322FA03F000F00100704738
:103348000010024000B583B00023019300E048B9A3
:103358001120FFF7D3FF019B01330193019BB3F5C4
:10336800A06FF4D11120FFF7C9FF003018BF01206A
:1033780003B05DF804FB00BF024A536A43F0807350
:103388005362704700100240034B9B68184214BFF9
:1033980001200020704700BF00100240014B187048
:1033A800704700BF0A100240084B1A6802F0030277
:1033B8001A601968002241F0F84119605A609A6051
:1033C800DA601A615A619A61704700BF00000140D3
:1033D800034A136823F0030318431060704700BFC3
:1033E80000000140044A136819B923EA000010607C
:1033F800704718431060704700000140044A136882
:1034080019B923EA0000106070471843106070472C
:1034180000000140044B1A6822F440021A601A683E
:1034280010431860704700BF00000140014B18604E
:10343800704700BF14002042044A136819B923EAF0
:10344800000010607047184310607047000001408A
:10345800044A136819B923EA00001060704718433A
:10346800106070470000014001F0FC0303F1804345
:1034780003F5803301F0030110B489009C680F2222
:103488008A4024EA02029A609A685DF8044B8840F0
:1034980002439A60704700BF024A936918439061DB
:1034A800704700BF00000140014B01221A607047BD
:1034B80010032042024A536818435060704700BF07
:1034C80000000140024B9869C0F30020704700BF1C
:1034D80000000140024A936918439061704700BF99
:1034E8000000014008B5464B984227D0B0F1804F04
:1034F80030D0444B984237D0434B98423ED0434B50
:10350800984245D0424B98424CD0424B984253D0B7
:10351800414B98425CD0414B984265D0404B984211
:1035280000D008BD4FF480200121FFF7C3FE4FF4FF
:1035380080200021BDE80840FFF7BCBE4FF40060C2
:103548000121FFF7B7FE4FF400600021BDE80840F5
:10355800FFF7B0BE01200146FFF7B8FE01200021A9
:10356800BDE80840FFF7B2BE02200121FFF7AEFE1A
:1035780002200021BDE80840FFF7A8BE0420012171
:10358800FFF7A4FE04200021BDE80840FFF79EBE17
:1035980010200121FFF79AFE10200021BDE8084005
:1035A800FFF794BE20200121FFF790FE2020002184
:1035B800BDE80840FFF78ABE4FF400500121FFF72D
:1035C80079FE4FF400500021BDE80840FFF772BEB5
:1035D8004FF480300121FFF76DFE4FF48030002159
:1035E800BDE80840FFF766BE4FF400300121FFF741
:1035F80061FE4FF400300021BDE80840FFF75ABED5
:10360800002C014000040040000800400010004069
:1036180000140040003401400040014000440140D3
:1036280000480140284A038890429BB23CD002F5EA
:103638000062904238D0B0F1804F35D0A2F5983270
:10364800904231D002F5806290422DD01F4A9042BC
:1036580031D002F5806290422DD00A8970B423F4EB
:103668004073194C4E680D889BB21343A0420380E7
:10367800C662058512D0164B98420FD003F54063F9
:1036880098420BD003F58063984207D003F5806316
:10369800984203D00123436170BC70478B7A03863C
:1036A8000123436170BC70474A8823F070031343B9
:1036B800064A9042CDD103800B884A68C2620385CE
:1036C80001234361704700BF002C014000100040F7
:1036D8000034014000234FF0FF3242600380038131
:1036E80043808372704700BF01854261704700BF05
:1036F800038823F070031B041B0C194301807047D7
:1037080041627047C1627047406A7047008D80B25D
:10371800704700BF038829B923F002031B041B0C60
:10372800038070479BB243F002030380704700BFD9
:10373800038829B923F004031B041B0C038070477A
:103748009BB243F004030380704700BF038829B984
:1037580023F400631B041B0C038070479BB243F4E3
:1037680000630380704700BF038829B923F08003F2
:103778001B041B0C038070479BB243F0800303803B
:10378800704700BF038823F008031B041B0C038049
:1037980003889BB219430180704700BF038823F454
:1037A80040731B041B0C038003889BB219430180E0
:1037B800704700BF038829B923F001031B041B0CC1
:1037C800038070479BB243F001030380704700BF3A
:1037D800F0B5046A8B898E88D1F800C0DFF87CE0E8
:1037E80024F001040462056A4768846925F002052B
:1037F80024F480322B4322F07302704543EA060317
:1038080042EA0C0214D0144CA04211D004F54064D2
:10381800A0420DD004F58064A04209D004F580646C
:10382800A04205D089684760826141630362F0BDA8
:10383800CC89B1F810C0B1F806E04E8A23F008032D
:1038480027F44075234323F004034CEA050443EAB4
:103858000E0344EA0607E5E700340140002C014066
:10386800F0B5046A8D898B880F68184E24F010040F
:103878000462046AD0F804E0826922F0807224F0BD
:1038880020042B4322F4E642B04244EA031342EAFE
:10389800072209D00E4CA04206D08968C0F804E07F
:1038A800826181630362F0BDCF890E8A4C8ACD881C
:1038B80023F0800343EA07132EF4406E23F04003FD
:1038C800344343EA05134EEA840EE6E7002C014030
:1038D80000340140F0B5046A8D898B880F68174E53
:1038E80024F480740462046AD0F804E0C26924F401
:1038F80000742B4322F07302B04244EA032342EAE5
:10390800070209D00E4CA04206D08968C0F804E02E
:10391800C261C1630362F0BDCF890E8A4C8ACD882B
:1039280023F4006343EA07232EF4405E23F4806304
:10393800344343EA05234EEA041EE6E7002C01401F
:1039480000340140F0B5046AB1F80CE08B880F68C8
:10395800104E24F480540462026A4568C46922F453
:1039680000524EEA030324F4E644B04242EA033329
:1039780044EA072208D0084CA04205D0896845606F
:10398800C26101640362F0BD0C8A25F4804545EAF2
:103998008415F3E7002C014000340140026A8B884B
:1039A80022F48032F0B5B1F80CE00C680262026AC9
:1039B8000E4E4768456D22F400324EEA030325F0A7
:1039C8007005B04242EA034345EA040208D0084CB5
:1039D800A04205D089684760426581650362F0BDF1
:1039E8000C8A27F4803747EA0447F3E7002C0140A4
:1039F80000340140F0B5046AB1F80CE08B880F6818
:103A08000F4E24F480140462026A4568446D22F45F
:103A180000124EEA030324F4E044B04242EA03539E
:103A280044EA072208D0074CA04205D089684560BF
:103A38004265C1650362F0BD25F40035F6E700BFB5
:103A4800002C014000340140836D19B923F0005364
:103A58008365704743F0005383657047836D19B9D8
:103A680023F080438365704743F080438365704744
:103A7800836D19B923F000438365704743F0004311
:103A880083657047002303608380C38083608381DC
:103A9800C38103824382704701238B4010B4DB4308
:103AA800046A9BB2234021F00804036218307CB1F9
:103AB8000439490812020B585DF8044B23F080734F
:103AC80023F4E0430B500B5892B21A430A50704744
:103AD80049085DF8044B435823F4803323F07003FE
:103AE800435043581A434250704700BF41637047E0
:103AF80081637047C163704701647047816570478F
:103B0800C1657047836923F4803323F07003194338
:103B180081617047836923F0807323F4E04343EAAB
:103B280001218161704700BFC36923F07003194305
:103B3800C1617047C36923F4E04343EA0121C161CD
:103B4800704700BF436D23F0700319434165704708
:103B5800436D23F4E04343EA01214165704700BF08
:103B6800836923F00803194381617047836923F44B
:103B7800006343EA01218161704700BFC36923F0F4
:103B880008031943C1617047C36923F4006343EA1A
:103B98000121C161704700BF436D23F00803194339
:103BA80041657047436D23F4006343EA0121416591
:103BB800704700BF836923F004031943816170478C
:103BC800836923F4806343EA01218161704700BF60
:103BD800C36923F004031943C1617047C36923F41F
:103BE800806343EA0121C161704700BF836923F004
:103BF8008003194381617047836923F4004343EAD2
:103C080001218161704700BFC36923F08003194314
:103C1800C1617047C36923F4004343EA0121C161CC
:103C2800704700BF436D23F0800319434165704717
:103C3800436D23F4004343EA01214165704700BF07
:103C480082684FF6F7731340836083681943816075
:103C5800704700BF036A23F00203194301627047EB
:103C6800036A23F00803194301627047036A23F0CB
:103C7800200343EA01110162704700BF036A23F081
:103C8800800343EA01110162704700BF036A23F40D
:103C9800007343EA01210162704700BF036A23F4FD
:103CA800006343EA01210162704700BF036A23F4FD
:103CB800005343EA01310162704700BF036A23F4ED
:103CC800003343EA01410162704700BF036A23F4ED
:103CD800001343EA01510162704700BF10B4012389
:103CE800046A8B4024EA03030362036A5DF8044B09
:103CF8008A4013430362704710B40423046A8B405C
:103D080024EA03030362036A5DF8044B8A40134301
:103D1800036270470B88F0B56BB3042B49D0082BAE
:103D28004E88036A8C880A89CD8866D04EF6FF7162
:103D380019400162C769D0F820E045F6FF732102F7
:103D48000EEA030340F6FF4441EA02323C4043EAEC
:103D58000633224343F4805392B29BB2C26103629A
:103D6800C2694FF2FF331340C361C2692B029BB291
:103D78001343C361F0BD026A4C888B880E89CD88D5
:103D880022F0010202628269016A22F0F3021343FF
:103D980044F0010421F00A0243EA06132243836136
:103DA8000262826922F00C02826183692B4383617B
:103DB800F0BD066A4B888C880F89CD884FF6EF7264
:103DC800324002628169066A1B0143F01003240233
:103DD8004FF65F729BB244EA073421F473413240D4
:103DE8001343214381610362836923F44063836140
:103DF800836943EA05238361F0BD4FF6FF611940EB
:103E08000162C769D0F820E04FF2FF534FF60C71FA
:103E18000EEA030344EA0212394043EA06230A433E
:103E280043F4807392B29BB2C2610362C3694FF6D6
:103E3800F3721A40C261C3692B43C361F0BD00BF6E
:103E480000230122828003804380C380038170475E
:103E58004B888A88F0B5002B0E88D0F820E00CBF7C
:103E680002250025012A0CBF02240124002E3ED081
:103E78004FF6EF770EEA07070E89C9880762D0F870
:103E880018E0D0F820C01B0143F0100312024FF6CF
:103E98005F779BB242EA06322EF4734E0CEA0707AC
:103EA80042EA0E023B4382610362836923F4406362
:103EB8008361836943EA01238361036A23F0010371
:103EC80003628269036A22F0F30245F0010542EABF
:103ED800061223F00A032B4322438261036283699B
:103EE80023F00C038361836919438161F0BD0F8955
:103EF800CE882EF0010101628169D0F820E021F01E
:103F0800F301114343F001032EF00A02134341EA7F
:103F1800071181610362836923F00C03836183695C
:103F280033438361026A4FF6EF7313400362826979
:103F3800016A4FF65F7322F473420B4042EA07327C
:103F480043EA051343F0100342EA04248461036240
:103F5800836923F440638361836943EA06268661A3
:103F6800F0BD00BF406B7047806B7047C06B7047F7
:103F7800006C7047836923F00C03836183691943DC
:103F880081617047836923F440638361836943EAED
:103F980001218161704700BFC2694FF6F373134076
:103FA800C361C3691943C161704700BFC2694FF259
:103FB800FF331340C361C369090289B21943C16160
:103FC800704700BFF0B50B88B1F802E08F88CE8843
:103FD8000D894C898A894EEA03033B4333432B43BB
:103FE800234313439BB24364F0BD00BF436C23F4E7
:103FF80072234364436C194341EA024242647047A6
:10400800436C23F03C734364436C194341EA025206
:1040180042647047436C19B923F480534364704772
:1040280043F4805343647047436C19B923F0807399
:104038004364704743F080734364704700230380F0
:1040480043808380C380038143818381704700BF9D
:10405800436C19B9C3F30E034364704743F4004338
:104068004364704729B942684FF6FB7313404360B5
:104078007047436843F004034360704729B94268B6
:104088004FF6FE73134043607047436843F00103E3
:10409800436070472AB9C368C94389B21940C160EF
:1040A8007047C3681943C160704700BF41617047DA
:1040B8000369194214BF012000207047C94389B21F
:1040C800016170470369C26811EA030003D0114215
:1040D80014BF012000207047C94389B201617047AD
:1040E8000A43A0F8482070472AB9C368C94389B26F
:1040F8001940C1607047C3681943C160704700BF69
:1041080029B942684FF6F773134043607047436814
:1041180043F008034360704782684FF6F873134012
:104128008360704782684FF68F731340194381602C
:10413800836843F007038360704700BF602970B449
:104148001ED0046A24F0010404628469056A24F01C
:10415800F30442F0010244F0010425F00A0544EAA0
:1041680003132A438361026282684FF68F731340F8
:104178000B438360836843F00703836070BC704718
:10418800056A4FF6EF742C4004628469066A1201CE
:1041980042F0100224F473444FF65F7592B244F46F
:1041A8008074354044EA03332A4383610262DBE7C3
:1041B80010B4846842EA0323E4B223439BB2194350
:1041C800816083685DF8044B23F077039BB243F06A
:1041D80077038360704700BF10B4846842EA032302
:1041E800E4B223439BB21943816083685DF8044BB2
:1041F80043F480438360704782684FF68F7313409F
:1042080019438160704700BF42684FF68F731340AF
:104218004360436819434160704700BF436823F413
:10422800700343604368194341607047836823F40F
:10423800803323F0070383608368194381607047E4
:1042480082684FF67F7313408360836819438160E7
:10425800704700BF10B48468E4B221430A4342EABD
:10426800032399B281605DF8044B7047F0B5876805
:10427800D0F818E0046AA4B24FF6FC4524F02204F2
:1042880022434FF6F8760EEA05053E4042EA03134C
:1042980045F4807531439AB245F001058160856126
:1042A8000262F0BD29B942684FF67F73134043603C
:1042B8007047436843F0800343607047A0F850108C
:1042C800704700BF08B5264B984218D0254B984236
:1042D80021D0254B98422AD0244B984233D0244BE6
:1042E800984200D008BD4FF480100121FEF7EEFF80
:1042F8004FF480100021BDE80840FEF7E7BF4FF4F7
:1043080080400121FEF7D6FF4FF480400021BDE830
:104318000840FEF7CFBF4FF400300121FEF7D6FF6B
:104328004FF400300021BDE80840FEF7CFBF4FF43E
:1043380080200121FEF7CAFF4FF480200021BDE84C
:104348000840FEF7C3BF4FF400200121FEF7BEFF6F
:104358004FF400200021BDE80840FEF7B7BF00BFBA
:10436800003801400044004000480040004C004034
:1043780000500040F0B5066804460B1D26F0010603
:1043880093E8881008690D4649692660666826F42E
:10439800405E4EEA0707676022684CEA030622F48B
:1043A800B05323F00C0346EA000213432360A368CA
:1043B80023F440730B4391B0A36001A8FEF786FD78
:1043C800164B9C4224D0164B9C4223D0154B9C4242
:1043D80022D0154B9C420CBF0E9A0F9A236829686D
:1043E800180448BF5200B2FBF1F301FB1322B2EBF1
:1043F800510F226828BF0133120405D54FF6F07219
:104408001A40C3F3420313439BB2A38111B0F0BD1A
:104418000B9AE3E70C9AE1E70D9ADFE700380140D1
:104428000044004000480040004C004000234FF486
:1044380016510C220160026143608360C3604361CE
:10444800704700BF30B491E824008C684368C9689D
:104458002A4322430A4323F470631343436030BC66
:10446800704700BF0023036043608360C3607047E8
:10447800036819B923F001030360704743F001038F
:104488000360704703681AB923EA010101607047A5
:1044980019430160704700BF036819B923F400434A
:1044A8000360704743F4004303607047836819B999
:1044B80023F400638360704743F4006383607047AC
:1044C800436819B923F400234360704743F4002379
:1044D80043607047436819B923F4802343607047E9
:1044E80043F480234360704743681AB923EA010103
:1044F8004160704719434160704700BF436819B96C
:1045080023F400434360704743F40043436070471B
:10451800436819B923F400034360704743F4000368
:1045280043607047436903F07F434361436919431C
:1045380041617047038A03F47F430382038A9BB275
:1045480019430182704700BF036819B923F00203B9
:104558000360704743F0020303607047836823F4E5
:10456800401383608368194381607047436819B9B1
:1045780023F480134360704743F48013436070470B
:10458800436823F4C003436043681943416070479C
:10459800C1F3080101857047808CC0F3080070479B
:1045A800436823F07F434360436843EA0161416005
:1045B800704700BF036819B923F4005303607047BC
:1045C80043F4005303607047036823F400630360F7
:1045D8000368194301607047436823F01003436080
:1045E8004368194341607047436823F020034360E0
:1045F8004368194341607047436819B923F48043FD
:104608004360704743F4804343607047836819B937
:1046180023F008038360704743F008038360704702
:10462800038ADBB20382038A9BB243EA0121018237
:10463800704700BF836819B923F02003836070476F
:1046480043F0200383607047836819B923F010038F
:104658008360704743F0100383607047836823F4D6
:1046680060238360836843EA41418160704700BFEB
:10467800436923F07F434361436943EA0161416130
:10468800704700BF836823F004038360836819437D
:1046980081607047836819B923F00203836070470B
:1046A80043F0020383607047836819B923F4804399
:1046B8008360704743F4804383607047836823F4C2
:1046C800004383608368194381607047036823F05F
:1046D80078730360036843EA41510160704700BF83
:1046E800036823F4F8130360036843EA0141016097
:1046F800704700BF83681AB923EA010181607047D7
:1047080019438160704700BF836823F400538360B6
:10471800836819438160704710B4CCB2C1F3072194
:104728000123022903FA04F310D0032908BF083033
:1047380032B902685DF8044B22EA0303036070474C
:1047480002685DF8044B1343036070470430EFE7D9
:10475800038B22B99BB223EA0101018370471943F5
:1047680089B20183704700BF836823F48053836054
:104778008368194381607047C369194214BF0120D7
:104788000020704701627047C1F3072210B401236B
:10479800CCB2012A03FA04F314D0022A0CBF4268EF
:1047A80082681340C2694BB1090C01238B40134244
:1047B80014BF012000205DF8044B704718465DF8CF
:1047C800044B704702681340ECE700BF090C012353
:1047D8008B400362704700BF81F0004102E000BFD8
:1047E80083F0004330B54FEA41044FEA430594EAA9
:1047F800050F08BF90EA020F1FBF54EA000C55EAE4
:10480800020C7FEA645C7FEA655C00F0E2804FEAB4
:104818005454D4EB5555B8BF6D420CDD2C4480EA96
:10482800020281EA030382EA000083EA010180EAC6
:10483800020281EA0303362D88BF30BD11F0004F14
:104848004FEA01314FF4801C4CEA113102D040424A
:1048580061EB410113F0004F4FEA03334CEA133385
:1048680002D0524263EB430394EA050F00F0A7809D
:10487800A4F10104D5F1200E0DDB02FA0EFC22FA98
:1048880005F2801841F1000103FA0EF2801843FA8C
:1048980005F359410EE0A5F120050EF1200E012A7D
:1048A80003FA0EFC28BF4CF0020C43FA05F3C018BB
:1048B80051EBE37101F0004507D54FF0000EDCF134
:1048C800000C7EEB00006EEB0101B1F5801F1BD3DD
:1048D800B1F5001F0CD349085FEA30004FEA3C0CE1
:1048E80004F101044FEA445212F5800F80F09A80D7
:1048F800BCF1004F08BF5FEA500C50F1000041EBDB
:10490800045141EA050130BD5FEA4C0C404141EBDE
:10491800010111F4801FA4F10104E9D191F0000F05
:1049280004BF01460020B1FA81F308BF2033A3F188
:104938000B03B3F120020CDA0C3208DD02F1140C7F
:10494800C2F10C0201FA0CF021FA02F10CE002F1BA
:104958001402D8BFC2F1200C01FA02F120FA0CFCB3
:10496800DCBF41EA0C019040E41AA2BF01EB0451FC
:10497800294330BD6FEA04041F3C1CDA0C340EDCFA
:1049880004F11404C4F1200220FA04F001FA02F33D
:1049980040EA030021FA04F345EA030130BDC4F1FB
:1049A8000C04C4F1200220FA02F001FA04F340EAF0
:1049B8000300294630BD21FA04F0294630BD94F0A1
:1049C800000F83F4801306BF81F480110134013D88
:1049D8004EE77FEA645C18BF7FEA655C29D094EAF9
:1049E800050F08BF90EA020F05D054EA000C04BF77
:1049F8001946104630BD91EA030F1EBF0021002062
:104A080030BD5FEA545C05D14000494128BF41F000
:104A1800004130BD14F580043CBF01F5801130BD64
:104A280001F0004545F0FE4141F470014FF00000EF
:104A380030BD7FEA645C1ABF194610467FEA655CA0
:104A48001CBF0B46024650EA013406BF52EA033542
:104A580091EA030F41F4002130BD00BF90F0000F30
:104A680004BF0021704730B54FF4806404F132046C
:104A78004FF000054FF0000150E700BF90F0000F25
:104A880004BF0021704730B54FF4806404F132044C
:104A980010F0004548BF40424FF000013EE700BF1C
:104AA80042004FEAE2014FEA31014FEA02701FBFAC
:104AB80012F07F4393F07F4F81F06051704792F07E
:104AC800000F14BF93F07F4F704730B54FF46074F8
:104AD80001F0004521F0004120E700BF50EA010243
:104AE80008BF704730B54FF000050AE050EA0102F0
:104AF80008BF704730B511F0004502D5404261EB60
:104B080041014FF4806404F132045FEA915C3FF4A0
:104B1800DCAE4FF003025FEADC0C18BF03325FEA39
:104B2800DC0C18BF033202EBDC02C2F1200300FAEE
:104B380003FC20FA02F001FA03FE40EA0E0021FA13
:104B480002F11444C1E600BF70B54FF0FF0C4CF4FD
:104B5800E06C1CEA11541DBF1CEA135594EA0C0FB3
:104B680095EA0C0F00F0DEF82C4481EA030621EAEE
:104B78004C5123EA4C5350EA013518BF52EA033529
:104B880041F4801143F4801338D0A0FB02CE4FF0DB
:104B98000005E1FB02E506F00042E0FB03E54FF00B
:104BA8000006E1FB03569CF0000F18BF4EF0010E03
:104BB800A4F1FF04B6F5007F64F5407404D25FEAFF
:104BC8004E0E6D4146EB060642EAC62141EA5551B2
:104BD8004FEAC52040EA5E504FEACE2EB4F1FD0CF4
:104BE80088BFBCF5E06F1ED8BEF1004F08BF5FEA72
:104BF800500E50F1000041EB045170BD06F0004624
:104C080046EA010140EA020081EA0301B4EB5C04D0
:104C1800C2BFD4EB0C0541EA045170BD41F48011C8
:104C28004FF0000E013C00F3AB8014F1360FDEBFED
:104C3800002001F0004170BDC4F10004203C35DAC9
:104C48000C341BDC04F11404C4F1200500FA05F34C
:104C580020FA04F001FA05F240EA020001F00042ED
:104C680021F0004110EBD37021FA04F642EB060163
:104C78005EEA430E08BF20EAD37070BDC4F10C048D
:104C8800C4F1200500FA04F320FA05F001FA04F251
:104C980040EA020001F0004110EBD37041F100013D
:104CA8005EEA430E08BF20EAD37070BDC4F1200548
:104CB80000FA05F24EEA020E20FA04F301FA05F2B0
:104CC80043EA020321FA04F001F0004121FA04F258
:104CD80020EA020000EBD3705EEA430E08BF20EA28
:104CE800D37070BD94F0000F0FD101F00046400062
:104CF80041EB010111F4801F08BF013CF7D041EAE4
:104D0800060195F0000F18BF704703F000465200E7
:104D180043EB030313F4801F08BF013DF7D043EAB8
:104D28000603704794EA0C0F0CEA135518BF95EA6E
:104D38000C0F0CD050EA410618BF52EA4306D1D1F5
:104D480081EA030101F000414FF0000070BD50EA14
:104D5800410606BF1046194652EA430619D094EA9E
:104D68000C0F02D150EA013613D195EA0C0F05D188
:104D780052EA03361CBF104619460AD181EA0301DC
:104D880001F0004141F0FE4141F470014FF0000094
:104D980070BD41F0FE4141F4780170BD70B54FF02F
:104DA800FF0C4CF4E06C1CEA11541DBF1CEA1355AF
:104DB80094EA0C0F95EA0C0F00F0A7F8A4EB050491
:104DC80081EA030E52EA03354FEA013100F0888088
:104DD8004FEA03334FF0805545EA131343EA126351
:104DE8004FEA022245EA111545EA10654FEA002606
:104DF8000EF000419D4208BF964244F1FD0404F5BF
:104E0800407402D25B084FEA3202B61A65EB03051A
:104E18005B084FEA32024FF480104FF4002CB6EBD7
:104E2800020E75EB030E22BFB61A754640EA0C0057
:104E38005B084FEA3202B6EB020E75EB030E22BF97
:104E4800B61A754640EA5C005B084FEA3202B6EBD8
:104E5800020E75EB030E22BFB61A754640EA9C0097
:104E68005B084FEA3202B6EB020E75EB030E22BF67
:104E7800B61A754640EADC0055EA060E18D04FEA25
:104E8800051545EA16754FEA06164FEAC30343EAC5
:104E980052734FEAC2025FEA1C1CC0D111F4801F92
:104EA8000BD141EA00014FF000004FF0004CB6E78B
:104EB80011F4801F04BF01430020B4F1FD0C88BF2A
:104EC800BCF5E06F3FF6AFAEB5EB030C04BFB6EB35
:104ED800020C5FEA500C50F1000041EB045170BD28
:104EE8000EF0004E4EEA113114EB5C04C2BFD4EB55
:104EF8000C0541EA045170BD41F480114FF0000ED9
:104F0800013C90E645EA060E8DE60CEA135594EA54
:104F18000C0F08BF95EA0C0F3FF43BAF94EA0C0F57
:104F28000AD150EA01347FF434AF95EA0C0F7FF4CC
:104F380025AF104619462CE795EA0C0F06D152EA20
:104F480003353FF4FDAE1046194622E750EA410604
:104F580018BF52EA43067FF4C5AE50EA41047FF415
:104F68000DAF52EA43057FF4EBAE12E74FEA410278
:104F780012F5001215D211D56FF47873B3EB6252A3
:104F880012D94FEAC12343F0004343EA505311F0CA
:104F9800004F23FA02F018BF404270474FF000005C
:104FA800704750EA013005D111F0004008BF6FF09A
:104FB800004070474FF00000704700BF4A0011D210
:104FC80012F5001211D20DD56FF47873B3EB62525B
:104FD8000ED44FEAC12343F0004343EA505323FA67
:104FE80002F070474FF00000704750EA013002D1DC
:104FF8004FF0FF3070474FF0000070474FEA410212
:10500800B2F1E04324BFB3F5001CDCF1FE5C0DD91E
:1050180001F0004C4FEAC0024CEA5070B2F1004F68
:1050280040EB830008BF20F00100704711F0804F6B
:1050380021D113F13872BCBF01F00040704741F430
:1050480080114FEA5252C2F11802C2F1200C10FA34
:105058000CF320FA02F018BF40F001004FEAC12318
:105068004FEAD32303FA0CFC40EA0C0023FA02F3BC
:105078004FEA4303CCE77FEA625307D150EA013392
:105088001EBF4FF0FE4040F44000704701F0004062
:1050980040F0FE4040F40000704700BF7BB972B991
:1050A8000029BEBF00204FF0004106E008BF0028DD
:1050B8001CBF6FF000414FF0FF3000F03BB882B0EA
:1050C800EC462DE9005000F005F8DDF804E002B0E8
:1050D8000CBC70472DE9F041069C154606460F4664
:1050E800984600F029F805FB01F300FB0838A5FBFA
:1050F8000023B21A434467EB0303C4E90023BDE865
:10510800F08100BF2DE9F041069C904606460F4607
:105118001D4600F05FF900FB05F5A0FB082308FB1E
:105128000155B21A2B4467EB0303C4E90023BDE819
:10513800F08100BF704700BF00292DE9F043C0F29D
:10514800A6800026002BC0F29C80884694469E4686
:10515800154604460F46002B3DD18A4259D9B2FA6A
:1051680082F33BB1C3F120029F4020FA02F29D4036
:1051780017439C40290C220CB7FBF1FEA8B201FB97
:105188001E7742EA074700FB0EF3BB420AD97F1994
:105198000EF1FF3280F00581BB4240F20281AEF190
:1051A800020E2F44FF1AA4B2B7FBF1F301FB1377E9
:1051B80044EA074700FB03F0B84208D97F1903F116
:1051C800FF3280F0F080B84240F2ED80023B43EAC3
:1051D8000E43002203E08B420FD900221346341CF1
:1051E80018BF012460424FF0000565EB45015840A7
:1051F800514000196941BDE8F083B3FA83F2002AEF
:1052080040F086808B4202D3844500F2DB80012384
:10521800E5E712B90123B3FBF2F5B5FA85F00028EA
:105228003BD1781B4FEA154E1FFA85FC0122B0FBD3
:10523800FEF8210C0EFB180741EA07470CFB08F3A0
:10524800BB4207D97F1908F1FF3102D2BB4200F2F5
:10525800BD808846FF1AA4B2B7FBFEF30EFB137796
:1052680044EA07470CFB03FCBC4507D97F1903F147
:10527800FF3102D2BC4500F2A7800B4643EA08433F
:10528800ADE752426FEA060663EB43035DE740422F
:1052980061EB41014FF0FF3654E7C0F1200224FAD8
:1052A80002F107FA00F385404FEA154ED74019433B
:1052B800B7FBFEF20B0C0EFB12771FFA85FC43EAD4
:1052C80007430CFB02F79F4204FA00F407D95B1965
:1052D80002F1FF3074D29F4272D9023A2B44DF1B8D
:1052E80089B2B7FBFEF80EFB187341EA03430CFBC7
:1052F80008F79F4208D95B1908F1FF315CD29F4239
:105308005AD9A8F102082B44D81B48EA02428EE772
:10531800C2F120032CFA03F10EFA02FE20FA03F779
:1053280041EA0E0E08FA02F028FA03F14FEA1E4588
:105338003843B1FBF5F8030C05FB18111FFA8EF77B
:1053480043EA014107FB08F38B420CFA02FC09D936
:1053580011EB0E0108F1FF3930D28B422ED9A8F19A
:1053680002087144C91A80B2B1FBF5F305FB1311A9
:1053780040EA014107FB03F78F4208D911EB0E0100
:1053880003F1FF3016D28F4214D9023B714443EA2D
:105398000843C91BA3FB0C89494509D305D0002242
:1053A8001DE79646FEE6134611E794404445F6D2BB
:1053B800013BF4E70346EAE78846A5E7C846D1E794
:1053C80002468CE713460AE7023B57E7A8F10208B2
:1053D8002F443FE72DE9F041002B44D18A4215467E
:1053E80004464FD9B2FA82F70E464FB1C7F12003EF
:1053F800B94020FA03F602FA07F50E4300FA07F45B
:105408004FEA154E230CB6FBFEF0AFB20EFB10614F
:1054180043EA014307FB00F1994209D95B1900F1FE
:10542800FF3280F0EC80994240F2E98002382B4448
:105438005A1AA4B2B2FBFEF30EFB132244EA02424C
:1054480007FB03F7974208D9521903F1FF3180F09F
:10545800D880974240F2D580023B43EA00400026BC
:105468003146BDE8F0818B4247D8B3FA83F6002E67
:1054780048D18B4202D3824200F2CD8001203146CE
:10548800BDE8F08112B90125B5FBF2F5B5FA85F84A
:10549800B8F1000F77D14A1B4FEA154EAFB201267B
:1054A800B2FBFEF0230C0EFB102143EA014107FB7F
:1054B80000F38B4207D9491900F1FF3202D28B421F
:1054C80000F2BA801046C91AA4B2B1FBFEF30EFB73
:1054D800131144EA014407FB03F7A74208D96419EA
:1054E80003F1FF3280F08F80A74240F28C80023BAC
:1054F80043EA00403146BDE8F08100263046314697
:10550800BDE8F081C6F1200422FA04F5B3402B432C
:1055180020FA04FC01FA06F721FA04F54FEA134EC3
:105528004CEA0707B5FBFEF8390C0EFB18551FFAB5
:1055380083FC41EA05450CFB08F1A94202FA06F290
:1055480004D9ED1808F1FF3467D3A0466D1ABFB22D
:10555800B5FBFEF40EFB145547EA05410CFB04FCB1
:105568008C4504D9C91804F1FF355CD32C4644EAAC
:105578000844CCEB0101A4FB0223994248D344D050
:10558800204600266CE7C8F1200401FA08F305FA62
:1055980008F520FA04F7E1404FEA154E1F43B1FB26
:1055A800FEF63A0C0EFB16111FFA85FC42EA01437F
:1055B8000CFB06F29A4200FA08F407D95B1906F1C7
:1055C800FF3137D29A4235D9023E2B449B1ABFB2DB
:1055D800B3FBFEF00EFB103347EA03430CFB00F16C
:1055E800994207D95B1900F1FF3221D299421FD99C
:1055F80002382B445A1A40EA0646674650E71046D6
:1056080016E70B4629E7134672E7B0409042B7D237
:10561800601E002624E7304622E7A94295D9A8F162
:1056280002081D4492E78C45A0D9023C19449EE724
:105638001046DFE70E46C9E70238294443E700BFB2
:10564800844641EA000313F003036DD1403A41D385
:1056580051F8043B40F8043B51F8043B40F8043B44
:1056680051F8043B40F8043B51F8043B40F8043B34
:1056780051F8043B40F8043B51F8043B40F8043B24
:1056880051F8043B40F8043B51F8043B40F8043B14
:1056980051F8043B40F8043B51F8043B40F8043B04
:1056A80051F8043B40F8043B51F8043B40F8043BF4
:1056B80051F8043B40F8043B51F8043B40F8043BE4
:1056C80051F8043B40F8043B51F8043B40F8043BD4
:1056D800403ABDD2303211D351F8043B40F8043B74
:1056E80051F8043B40F8043B51F8043B40F8043BB4
:1056F80051F8043B40F8043B103AEDD20C3205D384
:1057080051F8043B40F8043B043AF9D2043208D07B
:10571800D2071CBF11F8013B00F8013B01D30B88ED
:1057280003806046704700BF082A13D38B078DD0CB
:1057380010F003038AD0C3F10403D21ADB071CBF9D
:1057480011F8013B00F8013B80D331F8023B20F807
:10575800023B7BE7043AD9D3013A11F8013B00F840
:10576800013BF9D20B7803704B7843708B788370C8
:10577800604670474FF0FF3C06E000BF4FF0010C59
:1057880002E000BF4FF0010C4DF804CD4FEA410C88
:105798007FEA6C5C4FEA430C18BF7FEA6C5C1BD055
:1057A80001B050EA410C0CBF52EA430C91EA030FD6
:1057B80002BF90EA020F0020704710F1000F91EA33
:1057C800030F58BF994208BF90422CBFD8176FEA01
:1057D800E37040F0010070474FEA410C7FEA6C5CCF
:1057E80002D150EA013C07D14FEA430C7FEA6C5CD6
:1057F800D6D152EA033CD3D05DF8040B704700BF02
:105808008446104662468C461946634600E000BF4F
:1058180001B5FFF7B7FF002848BF10F1000F01BD21
:105828004DF808EDFFF7F4FF0CBF012000205DF8EC
:1058380008FB00BF4DF808EDFFF7EAFF34BF012071
:1058480000205DF808FB00BF4DF808EDFFF7E0FF0A
:1058580094BF012000205DF808FB00BF4DF808ED5B
:10586800FFF7CEFF94BF012000205DF808FB00BFC2
:105878004DF808EDFFF7C4FF34BF012000205DF8A4
:1058880008FB00BF53B94AB9002908BF00281CBF4C
:105898004FF0FF314FF0FF30FFF74CBC82B0EC46C1
:1058A8002DE90050FFF72EFCDDF804E002B00CBC37
:1058B800704700BF044B1A88044B1A80044B1A889F
:1058C800044B1A80704700BF080C00200C0F002002
:1058D8007C0E0020580C002070477047704700006D
:1058E80000B5124B124A1B888BB09BB21421684634
:1058F80000F04AFAFBF74AF800200146FBF742F8A5
:105908006846FBF741F80B4B0B4A1B8805A89BB26E
:10591800142100F039FA01210020FBF733F805A81B
:10592800FBF732F80BB05DF804FB00BF080C002051
:105938008A9F00087C0E0020989F0008034B02886D
:105948001A80034B42881A80704700BF080C002059
:105958007C0E002008B52020FBF704F8084A58B947
:10596800107838B907490B780133DBB2032B94BFA1
:105978000B700870012300E00023137008BD00BFFE
:10598800C80B0020C90B002010B500210A460B46A1
:105998002020FAF7A9FF002121200A460B46BDE87E
:1059A8001040FAF7A1BF000007B59FED0B0AFAF700
:1059B800A5FE0A4B02211B88ADF8043001A8FAF7AE
:1059C80093FDFAF7B7FD0648FAF792FEFAF73EFD9F
:1059D80003B05DF804FB00BF00007A44B0980008EB
:1059E8004559000838B5FAF7D3FFFFF7CDFF41490D
:1059F80001223220FBF782F8FBF7B4F8FFF7D4FF57
:105A0800FFF76CFFFF253C4C2378AB4202D0FAF736
:105A1800BDFF25782378032B65D8DFE803F002055E
:105A28002347FFF75DFF60E000200146FAF7AAFF71
:105A38003248FAF7A9FF01210020FAF7A3FF3048FE
:105A4800FAF7A2FF03210020FAF79CFF2D48FAF786
:105A58009BFF2120FAF786FF0446002845D1FFF76F
:105A680029FF1BE000200146FAF78CFF2648FAF7C9
:105A78008BFF01210020FAF785FF2448FAF784FFFD
:105A880003210020FAF77EFF1E48FAF77DFF212048
:105A9800FAF768FF044640BBFFF71EFF20460221C5
:105AA800FAF770FF1A48FAF76FFF1EE00020014668
:105AB800FAF768FF1748FAF767FF01210020FAF79D
:105AC80061FF1548FAF760FF03210020FAF75AFF33
